:020000040000fa
:080000000002040000000000f2
:020000040000fa
:0400080034030000bd
:020000040000fa
:04000c0034030000b9
:020000040000fa
:0400100034030000b5
:020000040000fa
:0400140034030000b1
:020000040000fa
:0400180034030000ad
:020000040000fa
:04001c0034030000a9
:020000040000fa
:0400200034030000a5
:020000040000fa
:0400240034030000a1
:020000040000fa
:04002800340300009d
:020000040000fa
:04002c003403000099
:020000040000fa
:040030003403000095
:020000040000fa
:040034003403000091
:020000040000fa
:04003800340300008d
:020000040000fa
:04003c003403000089
:020000040000fa
:040040003403000085
:020000040000fa
:040044003403000081
:020000040000fa
:04004800340300007d
:020000040000fa
:04004c003403000079
:020000040000fa
:040050003403000075
:020000040000fa
:040054003403000071
:020000040000fa
:04005800340300006d
:020000040000fa
:04005c003403000069
:020000040000fa
:040060003403000065
:020000040000fa
:040064003403000061
:020000040000fa
:04006800340300005d
:020000040000fa
:04006c003403000059
:020000040000fa
:040070003403000055
:020000040000fa
:040074003403000051
:020000040000fa
:04007800fa02000088
:020000040000fa
:04007c003403000049
:020000040000fa
:040080003403000045
:020000040000fa
:040084003403000041
:020000040000fa
:04008800340300003d
:020000040000fa
:04008c003403000039
:020000040000fa
:040090003403000035
:020000040000fa
:040094003403000031
:020000040000fa
:04009800340300002d
:020000040000fa
:04009c003403000029
:020000040000fa
:0400a0003403000025
:020000040000fa
:0400a4003403000021
:020000040000fa
:0400a800340300001d
:020000040000fa
:0400ac003403000019
:020000040000fa
:0400b0003403000015
:020000040000fa
:0400b4003403000011
:020000040000fa
:0400b800340300000d
:020000040000fa
:0400bc003403000009
:020000040000fa
:0400c0003403000005
:020000040000fa
:0400c4003403000001
:020000040000fa
:0400c80034030000fd
:020000040000fa
:0400cc0034030000f9
:020000040000fa
:0400d00034030000f5
:020000040000fa
:0400d40034030000f1
:020000040000fa
:0400d80034030000ed
:020000040000fa
:0400dc0034030000e9
:020000040000fa
:0400e00034030000e5
:020000040000fa
:0400e40034030000e1
:020000040000fa
:0400e80034030000dd
:020000040000fa
:0400ec0034030000d9
:020000040000fa
:0400f00034030000d5
:020000040000fa
:0400f40034030000d1
:020000040000fa
:0400f80034030000cd
:020000040000fa
:0400fc0034030000c9
:020000040000fa
:0401000034030000c4
:020000040000fa
:0401040034030000c0
:020000040000fa
:0401080034030000bc
:020000040000fa
:04010c0034030000b8
:020000040000fa
:0401100034030000b4
:020000040000fa
:0401140034030000b0
:020000040000fa
:0401180034030000ac
:020000040000fa
:04011c0034030000a8
:020000040000fa
:0401200034030000a4
:020000040000fa
:0401240034030000a0
:020000040000fa
:04012800340300009c
:020000040000fa
:04012c003403000098
:020000040000fa
:040130003403000094
:020000040000fa
:040134003403000090
:020000040000fa
:04013800340300008c
:020000040000fa
:04013c003403000088
:020000040000fa
:040140003403000084
:020000040000fa
:040144003403000080
:020000040000fa
:04014800340300007c
:020000040000fa
:04014c003403000078
:020000040000fa
:040150003403000074
:020000040000fa
:040154003403000070
:020000040000fa
:04015800340300006c
:020000040000fa
:04015c003403000068
:020000040000fa
:040160003403000064
:020000040000fa
:040164003403000060
:020000040000fa
:04016800340300005c
:020000040000fa
:04016c003403000058
:020000040000fa
:040170003403000054
:020000040000fa
:040174003403000050
:020000040000fa
:04017800340300004c
:020000040000fa
:04017c003403000048
:020000040000fa
:040180003403000044
:020000040000fa
:040184003403000040
:020000040000fa
:04018800340300003c
:020000040000fa
:04018c003403000038
:020000040000fa
:040190003403000034
:020000040000fa
:040194003403000030
:020000040000fa
:04019800340300002c
:020000040000fa
:04019c003403000028
:020000040000fa
:0401a0003403000024
:020000040000fa
:0401a4003403000020
:020000040000fa
:0401a800340300001c
:020000040000fa
:0401ac003403000018
:020000040000fa
:0401b0003403000014
:020000040000fa
:0401b4003403000010
:020000040000fa
:0401b800340300000c
:020000040000fa
:0401bc003403000008
:020000040000fa
:0401c0003403000004
:020000040000fa
:0401c4003403000000
:020000040000fa
:0401c80034030000fc
:020000040000fa
:0401cc0034030000f8
:020000040000fa
:0401d00034030000f4
:020000040000fa
:0401d40034030000f0
:020000040000fa
:0401d80034030000ec
:020000040000fa
:0401dc0034030000e8
:020000040000fa
:0401e00034030000e4
:020000040000fa
:0401e40034030000e0
:020000040000fa
:0401e80034030000dc
:020000040000fa
:0401ec0034030000d8
:020000040000fa
:0401f00034030000d4
:020000040000fa
:0401f40034030000d0
:020000040000fa
:0401f80034030000cc
:020000040000fa
:0401fc0034030000c8
:020000040000fa
:0402000034030000c3
:020000040000fa
:0402040034030000bf
:020000040000fa
:0402080034030000bb
:020000040000fa
:04020c0034030000b7
:020000040000fa
:0402100034030000b3
:020000040000fa
:0402140034030000af
:020000040000fa
:0402180034030000ab
:020000040000fa
:04021c0034030000a7
:020000040000fa
:0402200034030000a3
:020000040000fa
:04022400340300009f
:020000040000fa
:04022800340300009b
:020000040000fa
:04022c003403000097
:020000040000fa
:040230003403000093
:020000040000fa
:04023400340300008f
:020000040000fa
:04023800340300008b
:020000040000fa
:04023c003403000087
:020000040000fa
:040240003403000083
:020000040000fa
:04024400340300007f
:020000040000fa
:04024800340300007b
:020000040000fa
:04024c003403000077
:020000040000fa
:040250003403000073
:020000040000fa
:04025400340300006f
:020000040000fa
:04025800340300006b
:020000040000fa
:04025c003403000067
:020000040000fa
:040260003403000063
:020000040000fa
:04026400340300005f
:020000040000fa
:100400000f0021000eff27000e01880000000000f1
:10041000000020000000e000020032000001200087
:100420002002880014000700910007000000e0008f
:1004300003003a0000002000010020000200370005
:100440000000200001002000810f70000100320038
:100450000f000700000020000000e0000200320052
:100460000000020000000000da04020000000000aa
:100470000040da000000fe00200020000000e00044
:1004800002003200100020009001880000000600e9
:10049000a1028800800478000000eb001f003700f4
:1004a000e284440054a0b4009905ba00e2844400f8
:1004b00054a0b4009906ba00e284440054a0b400e9
:1004c0000006eb00476fde00fd07b200ae018800ba
:1004d000636ce10003003a000ad801000000eb0061
:1004e0000e003700606ce10008003a00004deb00a0
:1004f0000a05e800020039003420ec000af0a000f0
:100500008b05e900f9ff3e00040037006168e10057
:10051000010032000086eb000b00070019c7ba008b
:100520000e04e0001905ba0003003a000a00e000da
:10053000dbff3a0000000600fe07b200ae028800b2
:100540008a047800f5ff37000cd0a300e20f4d00bd
:100550001c003b0089027800354dba000a05e8000e
:10056000020039003420ec000af0a0008b05e900fd
:100570000f003200254dba000a05e80002003900dc
:100580003420ec000af0a0008b05e90008003200de
:100590000c00e0000600320015cdba000a05e800a4
:1005a000020039003420ec000af0a0008b05e900bd
:1005b0008984e80054a0b4000b00e000e2ff3a0098
:1005c000000006009902ba00055d78008b05e9007d
:1005d000f7ff3200c82ade00055d78008b05e900d0
:1005e000f3ff32000c00e000f1ff320019ddba0029
:1005f000eeff3700809fbe003200f8003400f800a4
:1006000010002000a00188001000200000d0fe0093
:100610000000fa000288a900217380000020200059
:100620000080600000f0a7000000ea000000e90080
:100630004f00de00004078000080fb006100600099
:100640004900dd00217380000190a10001007000cd
:10065000207388000080fa003400f9003200f900ad
:100660004f00be00004006000040da000000fe001f
:1006700000000500839f68000100e00002003d00cb
:1006800060001000e08018000300e00002003d0060
:1006900060011100e0811900050007004f00e00033
:1006a00002003b0060001000e0801800000006001f
:1006b0006022b800060220000000d0008180d20035
:1006c0000482d2008582d2000000a0000202520003
:1006d00083825a00030031000202420083824a00f2
:1006e0000000a1000603e900f3ff3a000000060045
:020000040000fa
:1006f0000400fa00000f7800110798001e0078002f
:10070000e10f500017003a000021ef001e0090009a
:10071000cf80de0022aa24008289b900e402b90059
:10072000840178000301410023aa24000300b800db
:100730000101410082007800823e20000300200079
:10074000ccff070000007800100888000068a900ae
:1007500021088000000320000100700020088800ac
:1007600005e1a8001e007800e20f500017003a00d3
:100770000621ef001e009000cf80de0022aa240098
:100780008289b900e402b9008401780003014100c4
:1007900023aa24000300b800010141008200780070
:1007a000823e200003002000b2ff07000000780016
:1007b0006008880000e8a90081088000000320008c
:1007c000010070008008880011e1a8000080fa0094
:1007d000000006000400fa00100798000000eb007b
:1007e000000f78001e009000e10f50000e003a004c
:1007f00000408000680060000000e000030032005c
:1008000010002000000f78000700370000000000f3
:1008100000408000680060000000e000fcff320043
:100820000000eb00000f78001e009000e20f500067
:1008300010003a00014080000008200000806000a5
:100840000000e0000300320010002000000f7800dc
:100850000800370000000000014080000008200070
:10086000008060000000e000fbff32000000eb00b1
:10087000000f78000068a90000e8a9001e007800b9
:100880000080fa00000006000400fa00000f780063
:10089000110798001e007800e10f50001f003a0079
:1008a0000d003700410620001000200090ff0700d7
:1008b0000000000000408000680060000000e000d0
:1008c000fcff320005e1a9000068a9001e009000ad
:1008d0004006b100100798009e00900040062000de
:1008e000808f5000efff3c001e0090000000e000f1
:1008f0000a0034009e009000100020007cff0700da
:100900000000000000408000680060000000e0007f
:10091000fcff320005e1a9000068a9001e00780074
:10092000e20f500021003a000e003700410620007f
:10093000200020006eff0700000000000140800042
:1009400000082000008060000000e000fbff320093
:1009500011e1a90000e8a9001e0090004006b100c6
:10096000100798009e00900040062000808f5000e5
:10097000eeff3c001e0090000000e0000b00340081
:100980009e0090002000200059ff0700000000009a
:100990000140800000082000008060000000e000ae
:1009a000fbff320011e1a90000e8a9000080fa0075
:1009b000000006000000fa000e2eef001e2eef00d1
:1009c0002e2eef003e2eef004e2eef006e2eef008b
:1009d000000ea900612ea900410ea800040ea90076
:1009e000652ea90001358000f00f2800808060008e
:1009f000008025000100700000358800c228a80092
:100a00000288a9002288a800c3e8a800411f20008e
:100a10002000200036ff0700207080006100600089
:100a200000f0a7000000ea000000e9004f00de002f
:100a3000004078000080fb006100600021708000b1
:100a40000100a1000100700020708800411f2000fb
:0c0a5000200020008cff0700efff3700a3
:00000001FF
