:020000040000fa
:080000000002040000000000f2
:020000040000fa
:040008004c030000a5
:020000040000fa
:04000c004c030000a1
:020000040000fa
:040010004c0300009d
:020000040000fa
:040014004c03000099
:020000040000fa
:040018004c03000095
:020000040000fa
:04001c004c03000091
:020000040000fa
:040020004c0300008d
:020000040000fa
:040024004c03000089
:020000040000fa
:040028004c03000085
:020000040000fa
:04002c004c03000081
:020000040000fa
:040030004c0300007d
:020000040000fa
:040034004c03000079
:020000040000fa
:040038004c03000075
:020000040000fa
:04003c004c03000071
:020000040000fa
:040040004c0300006d
:020000040000fa
:040044004c03000069
:020000040000fa
:040048004c03000065
:020000040000fa
:04004c004c03000061
:020000040000fa
:040050004c0300005d
:020000040000fa
:040054004c03000059
:020000040000fa
:040058004c03000055
:020000040000fa
:04005c004c03000051
:020000040000fa
:040060004c0300004d
:020000040000fa
:040064004c03000049
:020000040000fa
:040068004c03000045
:020000040000fa
:04006c004c03000041
:020000040000fa
:040070004c0300003d
:020000040000fa
:040074004c03000039
:020000040000fa
:040078004c03000035
:020000040000fa
:04007c004c03000031
:020000040000fa
:040080004c0300002d
:020000040000fa
:040084004c03000029
:020000040000fa
:040088004c03000025
:020000040000fa
:04008c004c03000021
:020000040000fa
:040090004c0300001d
:020000040000fa
:040094004c03000019
:020000040000fa
:040098004c03000015
:020000040000fa
:04009c004c03000011
:020000040000fa
:0400a000fa02000060
:020000040000fa
:0400a4004c03000009
:020000040000fa
:0400a8004c03000005
:020000040000fa
:0400ac004c03000001
:020000040000fa
:0400b0004c030000fd
:020000040000fa
:0400b4004c030000f9
:020000040000fa
:0400b8004c030000f5
:020000040000fa
:0400bc004c030000f1
:020000040000fa
:0400c0004c030000ed
:020000040000fa
:0400c4004c030000e9
:020000040000fa
:0400c8004c030000e5
:020000040000fa
:0400cc004c030000e1
:020000040000fa
:0400d0004c030000dd
:020000040000fa
:0400d4004c030000d9
:020000040000fa
:0400d8004c030000d5
:020000040000fa
:0400dc004c030000d1
:020000040000fa
:0400e0004c030000cd
:020000040000fa
:0400e4004c030000c9
:020000040000fa
:0400e8004c030000c5
:020000040000fa
:0400ec004c030000c1
:020000040000fa
:0400f0004c030000bd
:020000040000fa
:0400f4004c030000b9
:020000040000fa
:0400f8004c030000b5
:020000040000fa
:0400fc004c030000b1
:020000040000fa
:040100004c030000ac
:020000040000fa
:040104004c030000a8
:020000040000fa
:040108004c030000a4
:020000040000fa
:04010c004c030000a0
:020000040000fa
:040110004c0300009c
:020000040000fa
:040114004c03000098
:020000040000fa
:040118004c03000094
:020000040000fa
:04011c004c03000090
:020000040000fa
:040120004c0300008c
:020000040000fa
:040124004c03000088
:020000040000fa
:040128004c03000084
:020000040000fa
:04012c004c03000080
:020000040000fa
:040130004c0300007c
:020000040000fa
:040134004c03000078
:020000040000fa
:040138004c03000074
:020000040000fa
:04013c004c03000070
:020000040000fa
:040140004c0300006c
:020000040000fa
:040144004c03000068
:020000040000fa
:040148004c03000064
:020000040000fa
:04014c004c03000060
:020000040000fa
:040150004c0300005c
:020000040000fa
:040154004c03000058
:020000040000fa
:040158004c03000054
:020000040000fa
:04015c004c03000050
:020000040000fa
:040160004c0300004c
:020000040000fa
:040164004c03000048
:020000040000fa
:040168004c03000044
:020000040000fa
:04016c004c03000040
:020000040000fa
:040170004c0300003c
:020000040000fa
:040174004c03000038
:020000040000fa
:040178004c03000034
:020000040000fa
:04017c004c03000030
:020000040000fa
:040180004c0300002c
:020000040000fa
:040184004c03000028
:020000040000fa
:040188004c03000024
:020000040000fa
:04018c004c03000020
:020000040000fa
:040190004c0300001c
:020000040000fa
:040194004c03000018
:020000040000fa
:040198004c03000014
:020000040000fa
:04019c004c03000010
:020000040000fa
:0401a0004c0300000c
:020000040000fa
:0401a4004c03000008
:020000040000fa
:0401a8004c03000004
:020000040000fa
:0401ac004c03000000
:020000040000fa
:0401b0004c030000fc
:020000040000fa
:0401b4004c030000f8
:020000040000fa
:0401b8004c030000f4
:020000040000fa
:0401bc004c030000f0
:020000040000fa
:0401c0004c030000ec
:020000040000fa
:0401c4004c030000e8
:020000040000fa
:0401c8004c030000e4
:020000040000fa
:0401cc004c030000e0
:020000040000fa
:0401d0004c030000dc
:020000040000fa
:0401d4004c030000d8
:020000040000fa
:0401d8004c030000d4
:020000040000fa
:0401dc004c030000d0
:020000040000fa
:0401e0004c030000cc
:020000040000fa
:0401e4004c030000c8
:020000040000fa
:0401e8004c030000c4
:020000040000fa
:0401ec004c030000c0
:020000040000fa
:0401f0004c030000bc
:020000040000fa
:0401f4004c030000b8
:020000040000fa
:0401f8004c030000b4
:020000040000fa
:0401fc004c030000b0
:020000040000fa
:040200004c030000ab
:020000040000fa
:040204004c030000a7
:020000040000fa
:040208004c030000a3
:020000040000fa
:04020c004c0300009f
:020000040000fa
:040210004c0300009b
:020000040000fa
:040214004c03000097
:020000040000fa
:040218004c03000093
:020000040000fa
:04021c004c0300008f
:020000040000fa
:040220004c0300008b
:020000040000fa
:040224004c03000087
:020000040000fa
:040228004c03000083
:020000040000fa
:04022c004c0300007f
:020000040000fa
:040230004c0300007b
:020000040000fa
:040234004c03000077
:020000040000fa
:040238004c03000073
:020000040000fa
:04023c004c0300006f
:020000040000fa
:040240004c0300006b
:020000040000fa
:040244004c03000067
:020000040000fa
:040248004c03000063
:020000040000fa
:04024c004c0300005f
:020000040000fa
:040250004c0300005b
:020000040000fa
:040254004c03000057
:020000040000fa
:040258004c03000053
:020000040000fa
:04025c004c0300004f
:020000040000fa
:040260004c0300004b
:020000040000fa
:040264004c03000047
:020000040000fa
:100400004f0221000eff2d000e01880000000000a9
:10041000000020000000e000020032000001200087
:1004200020028800140007009d0007000000e00083
:1004300003003a00a07f20000100200002003700e6
:100440000000200001002000810f70000100320038
:100450000f000700000020000000e0000200320052
:1004600000000200000000009c03020000000000e9
:100470000040da000000fe00200020000000e00044
:1004800002003200100020009001880000000600e9
:10049000a1028800800478000000eb001f003700f4
:1004a000e284440054a0b4009905ba00e2844400f8
:1004b00054a0b4009906ba00e284440054a0b400e9
:1004c0000006eb00476fde00fd07b200ae018800ba
:1004d000636ce10003003a000ad801000000eb0061
:1004e0000e003700606ce10008003a00004deb00a0
:1004f0000a05e800020039003420ec000af0a000f0
:100500008b05e900f9ff3e00040037006168e10057
:10051000010032000086eb000b00070019c7ba008b
:100520000e04e0001905ba0003003a000a00e000da
:10053000dbff3a0000000600fe07b200ae028800b2
:100540008a047800f5ff37000cd0a300e20f4d00bd
:100550001c003b0089027800354dba000a05e8000e
:10056000020039003420ec000af0a0008b05e900fd
:100570000f003200254dba000a05e80002003900dc
:100580003420ec000af0a0008b05e90008003200de
:100590000c00e0000600320015cdba000a05e800a4
:1005a000020039003420ec000af0a0008b05e900bd
:1005b0008984e80054a0b4000b00e000e2ff3a0098
:1005c000000006009902ba00055d78008b05e9007d
:1005d000f7ff3200c82ade00055d78008b05e900d0
:1005e000f3ff32000c00e000f1ff320019ddba0029
:1005f000eeff3700809fbe000400fa0090118000db
:10060000620060000000e0001a0032003222a900ff
:1006100019003700b0118000004f78000080800082
:100620008000e800f0012800008060000000e00089
:1006300004003d000000e90001fe2f000080700072
:100640000000e80010079800108080009e009000d5
:10065000808f50000800320000808000410021009f
:10066000008040001e4878009e00900001808800b5
:100670000100370000000000901180006100600060
:100680000000e000e3ff3a0003c8a9000080fa0080
:100690004f00be00004006000040da000000fe00ef
:1006a00000000500839f68000100e00002003d009b
:1006b00060001000e08018000300e00002003d0030
:1006c00060011100e0811900050007004f00e00003
:1006d00002003b0060001000e080180000000600ef
:1006e0006022b800060220000000d0008180d20005
:1006f0000482d2008582d2000000a00002025200d3
:1007000083825a00030031000202420083824a00c1
:100710000000a1000603e900f3ff3a000000060014
:020000040000fa
:100720000000fa007100200020002000e601070010
:100730000080fa00000006001e00fa000e2eef00f6
:100740001e2eef002e2eef003e2eef004e2eef005d
:100750006e2eef00000ea900612ea900410ea80028
:10076000412ea800316ea800300ea900040ea90089
:10077000652ea90010002000000f78000040eb005b
:10078000604f98000040eb00204798000040eb00cd
:10079000304798000000eb00200798000000eb00b5
:1007a000000f980010002000300798001000200073
:1007b000400798003136800000f82f0080806000ec
:1007c000b004200001007000303688000134800041
:1007d00000fc2f00008060003000b300003488006f
:1007e0003062a900e01d2000c011880031e2a8009d
:1007f0003342a80071428000f08f2f00808060009b
:1008000000502000010070007042880003c8a90059
:1008100023c8a800c3e8a800a10020001000200001
:1008200043010700810c2000200020004001070048
:10083000bbff07001e0078000000e00062003200ed
:1008400021738000002020000080600000f0a700dd
:100850000000ea000000e9004f00de0000407800e0
:100860000080fb00610060004900dd002173800012
:100870000190a1000100700020738800810c20000d
:1008800020002000900107005000370010808000f9
:1008900041002100008040009040780021579800de
:1008a000108080008000e800f001280000806000d7
:1008b0000000e00004003d000000e90001fe2f0000
:1008c000008070000000e800108088002e0090007a
:1008d0000000e8002007980000000000911180004f
:1008e00000202000008060000000e000fbff3a00d4
:1008f0002e5090000000fb00a01188002e419000b7
:10090000624f9800be409000214798002e51900001
:1009100032479800ee489000c0c4b30080cf50002a
:1009200015003a00ae40900040c4b30080cf5000a4
:1009300011003a00be40900010c3b30080cf5000b9
:100940000d003a00207080006100600000f0a700f8
:100950000000ea000000e9004f00de0000407800df
:100960000080fb0061006000217080000100a10098
:100970000100700020708800ee489000c0c4b300f1
:1009800080cf500011003a00ae40900040c4b30048
:1009900080cf50000d003a00be40900020c3b3004d
:1009a00080cf500009003a001e00780000f0a70038
:1009b0000000ea00000fe9001e0078004f00de0092
:1009c000000f780001003700000000000180800067
:1009d00010808000808f5000acff3a0011728000c0
:1009e00000102000008060000000e0005e003a007f
:1009f0003e009000e10f50005b003a000000000054
:100a00009111800000202000008060000000e000c4
:100a1000fbff3a0030042000a01188000000000015
:100a20009111800000202000008060000000e000a4
:100a3000fbff3a00d0032000a0118800ae00900018
:100a4000610798000000eb00500798006e009000ce
:100a50000000e0001f003a0000000000911180003b
:100a600000202000008060000000e000fbff3a0052
:100a700000032000a01188002c003700ee00900039
:100a8000a000200000017800110009008200d800b9
:100a90008000fd00004078000043b00080407800f6
:100aa0005e00900073004000017778005e009000c7
:100ab0000000e800500798006e0190007066260064
:100ac0000090b900c288de004f90de000080500028
:100ad000600798006e0090000000e000e7ff3c0017
:100ae0000e0037005e0090000000e90050079800fb
:100af00000000000911180000020200000806000b4
:100b00000000e000fbff3a005e0090007300400030
:100b10006e4078000000fb00a01188005e0090008d
:100b20000000e000efff3c00000000009111800099
:100b300000202000008060000000e000fbff3a0081
:100b4000d0002000a011880000000000911180005a
:100b500000202000008060000000e000fbff3a0061
:100b6000a0002000a0118800107280004800de0064
:100b7000614060000080fb00300798001172800027
:100b800000202000008060000000e00060003a00cb
:100b90004e009000e10f50005d003a0000000000a0
:100ba0009111800000202000008060000000e00023
:100bb000fbff3a0040042000a01188000000000064
:100bc0009111800000202000008060000000e00003
:100bd000fbff3a00d0032000a01188008e0890008f
:100be000610798000000eb00500798006e0090002d
:100bf0000000e00021003a00000000009111800098
:100c000000202000008060000000e000fbff3a00b0
:100c100000032000a01188002e003700ee00900095
:100c2000706626000089b9004299de004f88de0018
:100c300000005100ea00b900008050000040780038
:100c40000043b000804078005e00900073004000d8
:100c5000017778005e0090000000e80050079800df
:100c60006e019000706626000090b900c288de0018
:100c70004f90de0000805000600798006e009000ea
:100c80000000e000e5ff3c000e0037005e00900031
:100c90000000e9005007980000000000911180005a
:100ca00000202000008060000000e000fbff3a0010
:100cb0005e009000730040006e4078000000fb0072
:100cc000a01188005e0090000000e000efff3c00f3
:100cd00000000000911180000020200000806000d2
:100ce0000000e000fbff3a00d0002000a0118800c7
:100cf00000000000911180000020200000806000b2
:100d00000000e000fbff3a00a0002000a0118800d6
:100d1000107280004900de00614060000080fb002e
:100d200040079800100020003a000700c0fe37007e
:100d30000400fa00000f7800110798001e007800e8
:100d4000e10f500017003a000021ef001e00900054
:100d5000cf80de0022aa24008289b900e402b90013
:100d6000840178000301410023aa24000300b80095
:100d70000101410082007800823e20000300200033
:100d800048fe070000007800100888000068a900ed
:100d90002108800000032000010070002008880066
:100da00005e1a8001e007800e20f500017003a008d
:100db0000621ef001e009000cf80de0022aa240052
:100dc0008289b900e402b90084017800030141007e
:100dd00023aa24000300b80001014100820078002a
:100de000823e2000030020002efe07000000780055
:100df0006008880000e8a900810880000003200046
:100e0000010070008008880011e1a8000080fa004d
:100e1000000006000400fa00100798000000eb0034
:100e2000000f78001e009000e10f50000e003a0005
:100e300000408000680060000000e0000300320015
:100e400010002000000f78000700370000000000ad
:100e500000408000680060000000e000fcff3200fd
:100e60000000eb00000f78001e009000e20f500021
:100e700010003a000140800000082000008060005f
:100e80000000e0000300320010002000000f780096
:100e9000080037000000000001408000000820002a
:100ea000008060000000e000fbff32000000eb006b
:100eb000000f78000068a90000e8a9001e00780073
:100ec0000080fa00000006000400fa00000f78001d
:100ed000110798001e007800e10f50001f003a0033
:100ee0000d003700410620001000200090ff070091
:100ef0000000000000408000680060000000e0008a
:100f0000fcff320005e1a9000068a9001e00900066
:100f10004006b100100798009e0090004006200097
:100f2000808f5000efff3c001e0090000000e000aa
:100f30000a0034009e009000100020007cff070093
:100f40000000000000408000680060000000e00039
:100f5000fcff320005e1a9000068a9001e0078002e
:100f6000e20f500021003a000e0037004106200039
:100f7000200020006eff07000000000001408000fc
:100f800000082000008060000000e000fbff32004d
:100f900011e1a90000e8a9001e0090004006b10080
:100fa000100798009e00900040062000808f50009f
:100fb000eeff3c001e0090000000e0000b0034003b
:100fc0009e0090002000200059ff07000000000054
:100fd0000140800000082000008060000000e00068
:100fe000fbff320011e1a90000e8a9000080fa002f
:040ff00000000600f7
:020000040000fa
:100ff4000410000020000000800000000010000029
:0c1004000400000080000000000000005c
:00000001FF
